:0A0E83000001020203030404050548
:100B490060221A00000001011516050000000000CE
:100B5900000000000000006009008C070000006030
:060B6900E316000000008D
:1005F200E4F52CF52BF52AF529F534F533F532F52A
:1006020031C203C200C202C2011209B87E017F00D8
:100612008E0C8F0D751601751712750A01750B1C5C
:100622007514017515EA751C01751DFC90E680E0D4
:1006320030E70E850A0E850B0F851412851513807F
:100642000C85140E85150F850A12850B13EE54E0E6
:10065200700302076D752D00752E807E017F008E5E
:100662002F8F30C3748C9FFF74029ECF2402CF342D
:1006720000FEE48F288E27F526F525F524F523F5CF
:1006820022F521AF28AE27AD26AC25AB24AA23A99B
:1006920022A821C3120DF5502AE52E2524F582E564
:1006A2002D3523F58374CDF0E4FAF9F8E52424011D
:1006B200F524EA3523F523E93522F522E83521F53B
:1006C2002180C0E4F524F523F522F521AF28AE27D9
:1006D200AD26AC25AB24AA23A922A821C3120DF56D
:1006E2005037E5302524F582E52F3523F583E0FFE9
:1006F200E52E2524F582E52D3523F583EFF0E4FA86
:10070200F9F8E5242401F524EA3523F523E9352215
:10071200F522E83521F52180B3852D0C852E0D7447
:10072200002480FF740134FFFEC3E5179FF517E52F
:10073200169EF516C3E50F9FF50FE50E9EF50EC347
:10074200E5139FF513E5129EF512C3E50B9FF50B1A
:10075200E50A9EF50AC3E5159FF515E5149EF51405
:10076200C3E51D9FF51DE51C9EF51CD2E843D8206C
:1007720090E668E04409F090E65CE0443DF0D2AFD8
:1007820090E680E020E105D206120D4A90E680E074
:1007920054F7F0538EF8C203300105120300C20170
:1007A2003003291208FE5024C203120DD020001675
:1007B20090E682E030E704E020E1EF90E682E0306C
:1007C200E604E020E0E4120D79120E951207D480BF
:0107D200C75F
:0107D3002203
:100AE500E51B7004E51A6401600AE51B7004E51A4C
:100AF5006402704FE509146041247D604614601C52
:100B0500146008240524F95024803890E7407403C4
:100B1500F0E490E68AF090E68B04F02290E74074CA
:100B250022F0E490E68AF090E68B04F022741A90A5
:100B3500E6B3F0740090E6B4F022E490E68AF09013
:040B4500E68BF02229
:1003000090E6B8E0F5085460FDE5085403FCA3E06E
:10031000F50990E6BBE0FE90E6BAE0FBEEF51AEBDD
:10032000F51B90E6BDE0FE90E6BCE0FBEEF518EBB9
:10033000F51990E6BFE0FE90E6BEE0FBEEF510EBAF
:10034000F511BD200DBC010A90E6BCE0147003124B
:100350000AE5ED60030205EA90E6B9E070030204E5
:10036000341470030204DD24FE700302057224FBC2
:10037000700302042E147003020428147003020494
:100380001C147003020422240560030205DE120E11
:100390009740030205EA90E6BBE024FE602C14605F
:1003A0004724FD601614603124067066E50C90E663
:1003B000B3F0E50D90E6B4F00205EAE51690E6B379
:1003C000F0E51790E6B4F00205EAE50E90E6B3F02A
:1003D000E50F90E6B4F00205EAE51290E6B3F0E529
:1003E0001390E6B4F00205EA90E6BAE0FF120DA51C
:1003F000AA06A9077B01EA494B600DEE90E6B3F02F
:10040000EF90E6B4F00205EA90E6A0E04401F002C5
:1004100005EA90E6A0E04401F00205EA120E71023E
:1004200005EA120E8D0205EA120C6C0205EA120EA4
:100430005F0205EA120E9940030205EA90E6B8E071
:10044000247F602B14603C240260030204D3A200CA
:10045000E433FF25E0FFA202E4334F90E740F0E4ED
:10046000A3F090E68AF090E68B7402F00205EAE4CD
:1004700090E740F0A3F090E68AF090E68B7402F0EB
:100480000205EA90E6BCE0547EFF7E00E0D3948053
:1004900040067C007D0180047C007D00EC4EFEED7A
:1004A0004F2483F582740E3EF583E493FF3395E089
:1004B000FEEF24A1FFEE34E68F82F583E054019035
:1004C000E740F0E4A3F090E68AF090E68B7402F047
:1004D0000205EA90E6A0E04401F00205EA120E9B54
:1004E00040030205EA90E6B8E024FE601D240260A5
:1004F000030205EA90E6BAE0B40105C2000205EA8B
:1005000090E6A0E04401F00205EA90E6BAE07059F6
:1005100090E6BCE0547EFF7E00E0D3948040067CF1
:10052000007D0180047C007D00EC4EFEED4F2483B5
:10053000F582740E3EF583E493FF3395E0FEEF24DD
:10054000A1FFEE34E68F82F583E054FEF090E6BC26
:10055000E05480FF131313541FFFE0540F2F90E655
:1005600083F0E04420F00205EA90E6A0E04401F0C8
:100570008078120E9D507390E6B8E024FE6020242F
:1005800002706790E6BAE0B40104D200805C90E6A5
:10059000BAE06402605490E6A0E04401F0804B9021
:1005A000E6BCE0547EFF7E00E0D3948040067C00F1
:1005B0007D0180047C007D00EC4EFEED4F2483F530
:1005C00082740E3EF583E493FF3395E0FEEF24A1A1
:1005D000FFEE34E68F82F583E04401F0800C120ECA
:1005E0009F500790E6A0E04401F090E6A0E0448030
:0105F000F01A
:0105F10022E7
:030033000208FAC6
:0408FA0053D8EF32AE
:1001000012010002EF020140B404360000000102B7
:1001100000010A060002EF02014001000902CE00C0
:1001200002010080FA080B00020E0300020904001D
:1001300000010E0100020D240110015100006CDCD1
:10014000020101122402010102000000000000006F
:1001500000030000000D2405020100400300000020
:1001600000001C240603FFFFFFFFFFFFFFFFFFFF50
:10017000FFFFFFFFFFFF0001020300000000092452
:10018000030401010003000705880340000805255A
:1001900003400009040100010E0200000E240101C9
:1001A000470082000401000001001B2404010159E2
:1001B00055593200001000800000AA00389B7110D1
:1001C00001010100001E240501010C000C000000CB
:1001D0000100FFFFFFFFFFFFFFFF102700000110DE
:1001E0002700000705820200040009021200010135
:1001F00000A0320904000000FF000000040309040D
:1002000010034300790070007200650073007300F2
:100210007C0345005A002D00550053004200200089
:1002200046005800320020004700500049004600B8
:10023000200074006F00200045007800740020004A
:100240004600490046004F0020004500780061004C
:100250006D0070006C00650020007500730069007F
:100260006E0067002000530069006E0067006C009C
:10027000650020005400720061006E007300610090
:0E0280006300740069006F006E0073000000E0
:100B6F00421A250000411A2400C10501428C02409F
:100B7F000000043700000000043B00000004C10423
:080B8F00411A2200411A230063
:1009B80090E6007412F090E601E04440F000000078
:1009C80090E61274E0F0000000E490E613F00000F6
:1009D8000090E614F000000090E615F090E618F09C
:1009E80000000090E619F000000090E61AF0000000
:1009F8000090E61BF000000090E670E04440F00034
:100A08000000E490E609F000000090E602F0000023
:100A18000090E603F000000000000090E6047480F7
:100A2800F00000007402F00000007404F000000000
:100A38007406F00000007408F0000000E4F0000004
:100A48000090E65CE04402F000000043B504C2B246
:010A5800227B
:1007D400E4F535F5367FF07EFF7D0FFCAB3AAA39A0
:1007E400A938A837C3120DF5501AE4FAF9F8E53A16
:1007F4002401F53AEA3539F539E93538F538E8357B
:1008040037F53722E5AB30E1FBB20490F000740C0D
:10081400F0A3E542F063420190F002E53EF0A374D8
:1008240012F0A3F0A3F0E53EFFE4A3EFF0AE3DAD7C
:100834003CAC3B7808120E06EFE4A3EFF0AF3EAEFB
:100844003DAD3CAC3B7810120E06EFE4A3EFF0AFE5
:100854003EAE3DAD3CAC3B7818120E06EFE4A3EF80
:10086400F0A374C1F0A37405F000000075350075A1
:100874003603E536AE357802C333CE33CED8F9FF2E
:100884002400F58274F03EF583743EF074012FF574
:100894008274F03EF5837466F074022FF58274F06E
:1008A4003EF583743EF074032FF58274F03EF583B5
:1008B40074EFF00536E53670020535648045357011
:1008C400B1E4FAF9F8E53E2401F53EEA353DF53D9B
:1008D400E9353CF53CE8353BF53B00000090E690FB
:1008E4007401F000000090E691742CF00000009078
:0508F400E6487402F06B
:0108F90022DC
:0208FE00D32203
:020E9500D32266
:020E9700D32264
:100C6C0090E680E030E71090E6207402F00000007F
:100C7C00E490E621F0801CE490E624F00000009063
:100C8C00E626F000000090E6257440F0000000908D
:0B0C9C00E627F090E6BAE0F543D32213
:100E5F0090E740E543F0E490E68AF090E68B04F0EB
:020E6F00D3228C
:080E8D0090E6BAE0F53FD32224
:100E710090E740E53FF0E490E68AF090E68B04F0DD
:020E8100D3227A
:020E9900D32262
:020E9B00D32260
:020E9D00D3225E
:020E9F00D3225C
:100E1900C0E0C083C082D2015391EF90E65D7401B6
:080E2900F0D082D083D0E0324A
:100E4900C0E0C083C0825391EF90E65D7404F0D096
:060E590082D083D0E032DC
:100D1500C0E0C083C082C0D0C3E5419411E54094D2
:100D250001500A0541E54170020540800675400005
:100D35007541005391EF90E65D7402F0D0D0D082FA
:050D4500D083D0E03274
:100CA700C0E0C083C08290E680E030E70E850A0E80
:100CB700850B0F851412851513800C85140E851569
:100CC7000F850A12850B135391EF90E65D7410F0B0
:070CD700D082D083D0E0328F
:100E3100C0E0C083C082D2035391EF90E65D740895
:080E4100F0D082D083D0E03232
:100CDE00C0E0C083C08290E680E030E70E850A0E49
:100CEE00850B0F851412851513800C85140E851532
:100CFE000F850A12850B135391EF90E65D7420F069
:070D0E00D082D083D0E03257
:010EA100321E
:010EA200321D
:010EA300321C
:010EA400321B
:010EA500321A
:010EA6003219
:010EA7003218
:010EA8003217
:010EA9003216
:010EAA003215
:010EAB003214
:010EAC003213
:010EAD003212
:010EAE003211
:010EAF003210
:010EB000320F
:010EB100320E
:010EB200320D
:010EB300320C
:010EB400320B
:010EB500320A
:010EB6003209
:010EB7003208
:010EB8003207
:010EB9003206
:010EBA003205
:010EBB003204
:010EBC003203
:010EBD003202
:010EBE003201
:010EBF003200
:010EC00032FF
:010EC10032FE
:010EC20032FD
:010EC30032FC
:010EC40032FB
:100B9800AD07ED30E00D908100E0901A22F0A3E05F
:100BA80054FEF0ED30E10D909100E0901A22F0A390
:100BB800E054FDF0ED30E20D90A100E0901A22F033
:100BC800A3E054FBF0ED30E30D90B100E0901A2261
:070BD800F0A3E054F7F02246
:100BDF00AD07ED30E00D908000E0901A22F0A3E019
:100BEF004401F0ED30E10D909000E0901A22F0A357
:100BFF00E04402F0ED30E20D90A000E0901A22F0F8
:100C0F00A3E04404F0ED30E30D90B000E0901A2221
:070C1F00F0A3E04408F022FD
:100D790090E682E030E004E020E60B90E682E03085
:100D8900E119E030E71590E680E04401F07F147E38
:0C0D990000120C2690E680E054FEF022D0
:100D4A0030060990E680E0440AF0800790E680E0E9
:100D5A004408F07FDC7E05120C2690E65D74FFF0F5
:0F0D6A0090E65FF05391EF90E680E054F7F022AF
:020DA500A9079C
:100DA700AE1CAF1D8F828E83A3E064037017AD0165
:100DB70019ED7001228F828E83E07C002FFDEC3EBF
:080DC700FEAF0580DFE4FEFF32
:010DCF002201
:100DD00090E682E044C0F090E681F0438701000095
:040DE00000000022ED
:100C26008E358F3690E600E054187012E5362401B2
:100C3600FFE43535C313F535EF13F536801590E629
:100C460000E05418FFBF100BE53625E0F536E53514
:100C560033F535E5361536AE35700215354E600579
:060C6600120DE480EE22F5
:100DE4007400F58690FDA57C05A3E582458370F922
:010DF40022DC
:03004300020900AF
:030053000209009F
:10090000020E1900020D1500020E4900020E310000
:10091000020CA700020CDE00020EA100020EA200D3
:10092000020EA300020EA400020EA500020EA600F5
:10093000020EA700020EA800020EA900020EAA00D5
:10094000020EAB00020EA200020EAC00020EAD00C1
:10095000020EAE00020EAF00020EB000020EB10099
:10096000020EB200020EA200020EA200020EA200AF
:10097000020EB300020EB400020EB500020EB60065
:10098000020EB700020EB800020EB900020EBA0045
:10099000020EBB00020EBC00020EBD00020EBE0025
:1009A000020EBF00020EC000020EC100020EC20005
:0809B000020EC300020EC40098
:03000000020A5998
:0C0A5900787FE4F6D8FD758143020AA006
:100DF500EB9FF5F0EA9E42F0E99D42F0E89C45F054
:010E050022CA
:100E0600E8600FECC313FCED13FDEE13FEEF13FFCA
:030E1600D8F122EE
:100A65000205F2E493A3F8E493A34003F68001F2B0
:100A750008DFF48029E493A3F85407240CC8C33392
:100A8500C4540F4420C8834004F456800146F6DF61
:100A9500E4800B0102040810204080900B49E47E9D
:100AA500019360BCA3FF543F30E509541FFEE49356
:100AB500A360010ECF54C025E060A840B8E493A31D
:100AC500FAE493A3F8E493A3C8C582C8CAC583CA48
:100AD500F0A3C8C582C8CAC583CADFE9DEE780BE00
:010B9700005D
:00000001FF
